{
  "contractName": "PaymentChannel",
  "abi": [
    {
      "inputs": [
        {
          "internalType": "address payable",
          "name": "_receiver",
          "type": "address"
        },
        {
          "internalType": "uint256",
          "name": "_timeout",
          "type": "uint256"
        }
      ],
      "stateMutability": "payable",
      "type": "constructor",
      "payable": true
    },
    {
      "inputs": [],
      "name": "receiver",
      "outputs": [
        {
          "internalType": "address payable",
          "name": "",
          "type": "address"
        }
      ],
      "stateMutability": "view",
      "type": "function",
      "constant": true
    },
    {
      "inputs": [],
      "name": "sender",
      "outputs": [
        {
          "internalType": "address payable",
          "name": "",
          "type": "address"
        }
      ],
      "stateMutability": "view",
      "type": "function",
      "constant": true
    },
    {
      "inputs": [],
      "name": "timeout",
      "outputs": [
        {
          "internalType": "uint256",
          "name": "",
          "type": "uint256"
        }
      ],
      "stateMutability": "view",
      "type": "function",
      "constant": true
    },
    {
      "inputs": [
        {
          "internalType": "uint256",
          "name": "_amount",
          "type": "uint256"
        },
        {
          "internalType": "bytes",
          "name": "_signature",
          "type": "bytes"
        }
      ],
      "name": "claimPayment",
      "outputs": [],
      "stateMutability": "nonpayable",
      "type": "function"
    },
    {
      "inputs": [],
      "name": "claimTimeout",
      "outputs": [],
      "stateMutability": "nonpayable",
      "type": "function"
    },
    {
      "inputs": [
        {
          "internalType": "uint256",
          "name": "_amount",
          "type": "uint256"
        }
      ],
      "name": "generateSign",
      "outputs": [
        {
          "internalType": "bytes",
          "name": "",
          "type": "bytes"
        }
      ],
      "stateMutability": "view",
      "type": "function",
      "constant": true
    },
    {
      "inputs": [],
      "name": "balance",
      "outputs": [
        {
          "internalType": "uint256",
          "name": "",
          "type": "uint256"
        }
      ],
      "stateMutability": "view",
      "type": "function",
      "constant": true
    }
  ],
  "bytecode": "0x608060405260405162000f0a38038062000f0a83398181016040528101906200002991906200016b565b336000806101000a81548173ffffffffffffffffffffffffffffffffffffffff021916908373ffffffffffffffffffffffffffffffffffffffff16021790555081600160006101000a81548173ffffffffffffffffffffffffffffffffffffffff021916908373ffffffffffffffffffffffffffffffffffffffff1602179055508042620000b89190620001e1565b60028190555050506200023e565b600080fd5b600073ffffffffffffffffffffffffffffffffffffffff82169050919050565b6000620000f882620000cb565b9050919050565b6200010a81620000eb565b81146200011657600080fd5b50565b6000815190506200012a81620000ff565b92915050565b6000819050919050565b620001458162000130565b81146200015157600080fd5b50565b60008151905062000165816200013a565b92915050565b60008060408385031215620001855762000184620000c6565b5b6000620001958582860162000119565b9250506020620001a88582860162000154565b9150509250929050565b7f4e487b7100000000000000000000000000000000000000000000000000000000600052601160045260246000fd5b6000620001ee8262000130565b9150620001fb8362000130565b9250827fffffffffffffffffffffffffffffffffffffffffffffffffffffffffffffffff03821115620002335762000232620001b2565b5b828201905092915050565b610cbc806200024e6000396000f3fe608060405234801561001057600080fd5b506004361061007d5760003560e01c806370dea79a1161005b57806370dea79a146100c65780638ce8f8d8146100e4578063b69ef8a814610114578063f7260d3e146101325761007d565b80630e1da6c314610082578063392aa3c31461008c57806367e404ce146100a8575b600080fd5b61008a610150565b005b6100a660048036038101906100a19190610709565b610226565b005b6100b06103a1565b6040516100bd91906107a6565b60405180910390f35b6100ce6103c5565b6040516100db91906107d0565b60405180910390f35b6100fe60048036038101906100f991906107eb565b6103cb565b60405161010b91906108a0565b60405180910390f35b61011c6103f6565b60405161012991906107d0565b60405180910390f35b61013a6103fe565b60405161014791906107a6565b60405180910390f35b60008054906101000a900473ffffffffffffffffffffffffffffffffffffffff1673ffffffffffffffffffffffffffffffffffffffff163373ffffffffffffffffffffffffffffffffffffffff16146101de576040517f08c379a00000000000000000000000000000000000000000000000000000000081526004016101d590610945565b60405180910390fd5b4260025411156101ed57600080fd5b60008054906101000a900473ffffffffffffffffffffffffffffffffffffffff1673ffffffffffffffffffffffffffffffffffffffff16ff5b600160009054906101000a900473ffffffffffffffffffffffffffffffffffffffff1673ffffffffffffffffffffffffffffffffffffffff163373ffffffffffffffffffffffffffffffffffffffff16146102b6576040517f08c379a00000000000000000000000000000000000000000000000000000000081526004016102ad906109d7565b60405180910390fd5b6102c08282610424565b6102ff576040517f08c379a00000000000000000000000000000000000000000000000000000000081526004016102f690610a69565b60405180910390fd5b600160009054906101000a900473ffffffffffffffffffffffffffffffffffffffff1673ffffffffffffffffffffffffffffffffffffffff166108fc839081150290604051600060405180830381858888f19350505050158015610367573d6000803e3d6000fd5b5060008054906101000a900473ffffffffffffffffffffffffffffffffffffffff1673ffffffffffffffffffffffffffffffffffffffff16ff5b60008054906101000a900473ffffffffffffffffffffffffffffffffffffffff1681565b60025481565b606081306040516020016103e0929190610b42565b6040516020818303038152906040529050919050565b600047905090565b600160009054906101000a900473ffffffffffffffffffffffffffffffffffffffff1681565b600080610458843060405160200161043d929190610b42565b60405160208183030381529060405280519060200120610517565b9050600080600061046886610547565b92509250925060008054906101000a900473ffffffffffffffffffffffffffffffffffffffff1673ffffffffffffffffffffffffffffffffffffffff16600185858585604051600081526020016040526040516104c89493929190610ba3565b6020604051602081039080840390855afa1580156104ea573d6000803e3d6000fd5b5050506020604051035173ffffffffffffffffffffffffffffffffffffffff161494505050505092915050565b60008160405160200161052a9190610c60565b604051602081830303815290604052805190602001209050919050565b6000806000604184511461055a57600080fd5b6020840151915060408401519050606084015160001a92509193909250565b6000604051905090565b600080fd5b600080fd5b6000819050919050565b6105a08161058d565b81146105ab57600080fd5b50565b6000813590506105bd81610597565b92915050565b600080fd5b600080fd5b6000601f19601f8301169050919050565b7f4e487b7100000000000000000000000000000000000000000000000000000000600052604160045260246000fd5b610616826105cd565b810181811067ffffffffffffffff82111715610635576106346105de565b5b80604052505050565b6000610648610579565b9050610654828261060d565b919050565b600067ffffffffffffffff821115610674576106736105de565b5b61067d826105cd565b9050602081019050919050565b82818337600083830152505050565b60006106ac6106a784610659565b61063e565b9050828152602081018484840111156106c8576106c76105c8565b5b6106d384828561068a565b509392505050565b600082601f8301126106f0576106ef6105c3565b5b8135610700848260208601610699565b91505092915050565b600080604083850312156107205761071f610583565b5b600061072e858286016105ae565b925050602083013567ffffffffffffffff81111561074f5761074e610588565b5b61075b858286016106db565b9150509250929050565b600073ffffffffffffffffffffffffffffffffffffffff82169050919050565b600061079082610765565b9050919050565b6107a081610785565b82525050565b60006020820190506107bb6000830184610797565b92915050565b6107ca8161058d565b82525050565b60006020820190506107e560008301846107c1565b92915050565b60006020828403121561080157610800610583565b5b600061080f848285016105ae565b91505092915050565b600081519050919050565b600082825260208201905092915050565b60005b83811015610852578082015181840152602081019050610837565b83811115610861576000848401525b50505050565b600061087282610818565b61087c8185610823565b935061088c818560208601610834565b610895816105cd565b840191505092915050565b600060208201905081810360008301526108ba8184610867565b905092915050565b600082825260208201905092915050565b7f596f7520617265206e6f7420417574686f72697a656420746f20636c616d205460008201527f696d656f75740000000000000000000000000000000000000000000000000000602082015250565b600061092f6026836108c2565b915061093a826108d3565b604082019050919050565b6000602082019050818103600083015261095e81610922565b9050919050565b7f596f7520617265206e6f7420417574686f72697a656420746f20636c61696d2060008201527f5061796d656e7400000000000000000000000000000000000000000000000000602082015250565b60006109c16027836108c2565b91506109cc82610965565b604082019050919050565b600060208201905081810360008301526109f0816109b4565b9050919050565b7f596f7572205369676e6174757265206973206e6f742056616c696420746f206360008201527f6c61696d205061796d656e740000000000000000000000000000000000000000602082015250565b6000610a53602c836108c2565b9150610a5e826109f7565b604082019050919050565b60006020820190508181036000830152610a8281610a46565b9050919050565b6000819050919050565b610aa4610a9f8261058d565b610a89565b82525050565b6000819050919050565b6000610acf610aca610ac584610765565b610aaa565b610765565b9050919050565b6000610ae182610ab4565b9050919050565b6000610af382610ad6565b9050919050565b60008160601b9050919050565b6000610b1282610afa565b9050919050565b6000610b2482610b07565b9050919050565b610b3c610b3782610ae8565b610b19565b82525050565b6000610b4e8285610a93565b602082019150610b5e8284610b2b565b6014820191508190509392505050565b6000819050919050565b610b8181610b6e565b82525050565b600060ff82169050919050565b610b9d81610b87565b82525050565b6000608082019050610bb86000830187610b78565b610bc56020830186610b94565b610bd26040830185610b78565b610bdf6060830184610b78565b95945050505050565b6000819050919050565b610c03610bfe82610b6e565b610be8565b82525050565b600081905092915050565b7f54686973206973205369676e6564206d73670000000000000000000000000000600082015250565b6000610c4a601283610c09565b9150610c5582610c14565b601282019050919050565b6000610c6c8284610bf2565b602082019150610c7b82610c3d565b91508190509291505056fea2646970667358221220286fc23c6f65c624a0d2baf1a14274380115d62a5f905a2ac573b883c3e522a064736f6c634300080c0033",
  "immutableReferences": {},
  "source": "// SPDX-License-Identifier: GPL-3.0\n\npragma solidity >=0.7.0 <0.9.0;\n\ncontract PaymentChannel{\n    address payable public sender;\n    address payable public receiver;\n    uint public timeout;\n    constructor(address payable _receiver,uint _timeout) payable{\n        sender = payable(msg.sender);\n        receiver = _receiver;\n        timeout = block.timestamp + _timeout;\n    }\n    function claimPayment(uint _amount,bytes memory _signature) public{\n        require(msg.sender == receiver,\"You are not Authorized to claim Payment\");\n        require(validSign(_amount,_signature),\"Your Signature is not Valid to claim Payment\");\n        receiver.transfer(_amount);\n        selfdestruct(sender);\n    }\n    function claimTimeout() public{\n        require(msg.sender == sender,\"You are not Authorized to clam Timeout\");\n        require(timeout <= block.timestamp);\n        selfdestruct(sender);\n    }\n    function validSign(uint _amount,bytes memory _sign) internal view returns(bool) {\n        bytes32 message = getHash(keccak256(abi.encodePacked(_amount,this)));\n        (uint8 v, bytes32 r, bytes32 s) = splitSignature(_sign);\n\n        return ecrecover(message,v,r,s) == sender;\n    }\n    function splitSignature(bytes memory _sign) internal pure returns(uint8 v, bytes32 r, bytes32 s){\n        require( _sign.length == 65);\n        assembly{\n            r:=mload(add(_sign,32))\n            s:=mload(add(_sign,64))\n            v:=byte(0,mload(add(_sign,96)))\n        }\n        return (v,r,s);\n    }\n    function getHash(bytes32 _hash) internal pure returns(bytes32){\n        return keccak256(abi.encodePacked(_hash,\"This is Signed msg\"));\n    }\n    function generateSign(uint _amount) public view returns(bytes memory){\n        return abi.encodePacked(_amount,this);\n    }\n    //just to check balance of this contract\n    function balance() public view returns(uint){\n        return address(this).balance;\n    }\n}",
  "sourcePath": "/home/adarshkumarmoradiya/HackerEarth/Solidity/Truffle/contracts/PaymentChannel.sol",
  "compiler": {
    "name": "solc",
    "version": "0.8.12+commit.f00d7308.Emscripten.clang"
  },
  "schemaVersion": "3.4.4",
  "updatedAt": "2022-02-21T05:01:53.085Z",
  "networkType": "ethereum",
  "devdoc": {
    "kind": "dev",
    "methods": {},
    "version": 1
  },
  "userdoc": {
    "kind": "user",
    "methods": {},
    "version": 1
  }
}